{
  "contractName": "Election",
  "abi": [
    {
      "constant": true,
      "inputs": [
        {
          "name": "",
          "type": "address"
        }
      ],
      "name": "voters2",
      "outputs": [
        {
          "name": "",
          "type": "bool"
        }
      ],
      "payable": false,
      "stateMutability": "view",
      "type": "function"
    },
    {
      "constant": true,
      "inputs": [
        {
          "name": "",
          "type": "address"
        }
      ],
      "name": "voters5",
      "outputs": [
        {
          "name": "",
          "type": "bool"
        }
      ],
      "payable": false,
      "stateMutability": "view",
      "type": "function"
    },
    {
      "constant": true,
      "inputs": [],
      "name": "FaceCount",
      "outputs": [
        {
          "name": "",
          "type": "uint256"
        }
      ],
      "payable": false,
      "stateMutability": "view",
      "type": "function"
    },
    {
      "constant": true,
      "inputs": [
        {
          "name": "",
          "type": "address"
        }
      ],
      "name": "voters4",
      "outputs": [
        {
          "name": "",
          "type": "bool"
        }
      ],
      "payable": false,
      "stateMutability": "view",
      "type": "function"
    },
    {
      "constant": true,
      "inputs": [
        {
          "name": "",
          "type": "uint256"
        }
      ],
      "name": "candidate",
      "outputs": [
        {
          "name": "candId",
          "type": "uint256"
        },
        {
          "name": "electionId",
          "type": "uint256"
        },
        {
          "name": "candName",
          "type": "string"
        },
        {
          "name": "voteCount",
          "type": "uint256"
        }
      ],
      "payable": false,
      "stateMutability": "view",
      "type": "function"
    },
    {
      "constant": true,
      "inputs": [],
      "name": "ElectionCount",
      "outputs": [
        {
          "name": "",
          "type": "uint256"
        }
      ],
      "payable": false,
      "stateMutability": "view",
      "type": "function"
    },
    {
      "constant": true,
      "inputs": [
        {
          "name": "",
          "type": "address"
        }
      ],
      "name": "voters1",
      "outputs": [
        {
          "name": "",
          "type": "bool"
        }
      ],
      "payable": false,
      "stateMutability": "view",
      "type": "function"
    },
    {
      "constant": true,
      "inputs": [
        {
          "name": "",
          "type": "address"
        }
      ],
      "name": "voters3",
      "outputs": [
        {
          "name": "",
          "type": "bool"
        }
      ],
      "payable": false,
      "stateMutability": "view",
      "type": "function"
    },
    {
      "constant": true,
      "inputs": [
        {
          "name": "",
          "type": "uint256"
        }
      ],
      "name": "election",
      "outputs": [
        {
          "name": "electionId",
          "type": "uint256"
        },
        {
          "name": "electionName",
          "type": "string"
        },
        {
          "name": "candidateCount",
          "type": "uint256"
        }
      ],
      "payable": false,
      "stateMutability": "view",
      "type": "function"
    },
    {
      "constant": true,
      "inputs": [],
      "name": "CandidateCount",
      "outputs": [
        {
          "name": "",
          "type": "uint256"
        }
      ],
      "payable": false,
      "stateMutability": "view",
      "type": "function"
    },
    {
      "constant": true,
      "inputs": [
        {
          "name": "",
          "type": "address"
        }
      ],
      "name": "voters6",
      "outputs": [
        {
          "name": "",
          "type": "bool"
        }
      ],
      "payable": false,
      "stateMutability": "view",
      "type": "function"
    },
    {
      "constant": true,
      "inputs": [
        {
          "name": "",
          "type": "uint256"
        }
      ],
      "name": "votedface",
      "outputs": [
        {
          "name": "name",
          "type": "string"
        },
        {
          "name": "electag",
          "type": "uint256"
        },
        {
          "name": "count",
          "type": "uint256"
        }
      ],
      "payable": false,
      "stateMutability": "view",
      "type": "function"
    },
    {
      "inputs": [],
      "payable": false,
      "stateMutability": "nonpayable",
      "type": "constructor"
    },
    {
      "anonymous": false,
      "inputs": [
        {
          "indexed": true,
          "name": "_candidateId",
          "type": "uint256"
        }
      ],
      "name": "votedEvent",
      "type": "event"
    },
    {
      "constant": false,
      "inputs": [
        {
          "name": "name",
          "type": "string"
        },
        {
          "name": "tag",
          "type": "uint256"
        }
      ],
      "name": "addFace",
      "outputs": [],
      "payable": false,
      "stateMutability": "nonpayable",
      "type": "function"
    },
    {
      "constant": false,
      "inputs": [
        {
          "name": "name",
          "type": "string"
        },
        {
          "name": "count",
          "type": "uint256"
        }
      ],
      "name": "addElections",
      "outputs": [],
      "payable": false,
      "stateMutability": "nonpayable",
      "type": "function"
    },
    {
      "constant": false,
      "inputs": [
        {
          "name": "id",
          "type": "uint256"
        },
        {
          "name": "name",
          "type": "string"
        },
        {
          "name": "vote",
          "type": "uint256"
        }
      ],
      "name": "addCandidate",
      "outputs": [],
      "payable": false,
      "stateMutability": "nonpayable",
      "type": "function"
    },
    {
      "constant": false,
      "inputs": [
        {
          "name": "_candidateId",
          "type": "uint256"
        }
      ],
      "name": "vote1",
      "outputs": [],
      "payable": false,
      "stateMutability": "nonpayable",
      "type": "function"
    },
    {
      "constant": false,
      "inputs": [
        {
          "name": "_candidateId",
          "type": "uint256"
        }
      ],
      "name": "vote2",
      "outputs": [],
      "payable": false,
      "stateMutability": "nonpayable",
      "type": "function"
    },
    {
      "constant": false,
      "inputs": [
        {
          "name": "_candidateId",
          "type": "uint256"
        }
      ],
      "name": "vote3",
      "outputs": [],
      "payable": false,
      "stateMutability": "nonpayable",
      "type": "function"
    },
    {
      "constant": false,
      "inputs": [
        {
          "name": "_candidateId",
          "type": "uint256"
        }
      ],
      "name": "vote4",
      "outputs": [],
      "payable": false,
      "stateMutability": "nonpayable",
      "type": "function"
    },
    {
      "constant": false,
      "inputs": [
        {
          "name": "_candidateId",
          "type": "uint256"
        }
      ],
      "name": "vote5",
      "outputs": [],
      "payable": false,
      "stateMutability": "nonpayable",
      "type": "function"
    },
    {
      "constant": false,
      "inputs": [
        {
          "name": "_candidateId",
          "type": "uint256"
        }
      ],
      "name": "vote6",
      "outputs": [],
      "payable": false,
      "stateMutability": "nonpayable",
      "type": "function"
    }
  ],
  "bytecode": "0x60806040523480156200001157600080fd5b50620000636040805190810160405280601181526020017f47656e6572616c20536563726574617279000000000000000000000000000000815250600362000162640100000000026401000000009004565b620000b660016040805190810160405280600581526020017f41726a756e0000000000000000000000000000000000000000000000000000008152506000620001e0640100000000026401000000009004565b6200010960016040805190810160405280600681526020017f53756c61626800000000000000000000000000000000000000000000000000008152506000620001e0640100000000026401000000009004565b6200015c60016040805190810160405280600781526020017f5368756268616d000000000000000000000000000000000000000000000000008152506000620001e0640100000000026401000000009004565b6200031f565b6009600081548092919060010191905055506060604051908101604052806009548152602001838152602001828152506000806009548152602001908152602001600020600082015181600001556020820151816001019080519060200190620001ce92919062000270565b50604082015181600201559050505050565b600a60008154809291906001019190505550608060405190810160405280600a5481526020018481526020018381526020018281525060026000600a548152602001908152602001600020600082015181600001556020820151816001015560408201518160020190805190602001906200025d92919062000270565b5060608201518160030155905050505050565b828054600181600116156101000203166002900490600052602060002090601f016020900481019282601f10620002b357805160ff1916838001178555620002e4565b82800160010185558215620002e4579182015b82811115620002e3578251825591602001919060010190620002c6565b5b509050620002f39190620002f7565b5090565b6200031c91905b8082111562000318576000816000905550600101620002fe565b5090565b90565b6114a6806200032f6000396000f30060806040526004361061011c576000357c0100000000000000000000000000000000000000000000000000000000900463ffffffff16806292af1b1461012157806307e6dadd1461017c5780631057dfb1146101d7578063128ebca11461020257806315f8e40b1461027f5780631de43c4b146102da57806321e72b2f14610395578063275474c6146103c05780632b6772d21461041b5780633ac25af8146104765780633f056905146104a35780634dadf7d9146105575780634ee5544c146105845780637238414f146105b15780637bdb46b5146106245780638dd32e1514610651578063a6b1c33d1461067c578063b2ac0ead146106a9578063bb293bf414610704578063e870ddf014610731578063eb3c97a0146107e5575b600080fd5b34801561012d57600080fd5b50610162600480360381019080803573ffffffffffffffffffffffffffffffffffffffff169060200190929190505050610858565b604051808215151515815260200191505060405180910390f35b34801561018857600080fd5b506101bd600480360381019080803573ffffffffffffffffffffffffffffffffffffffff169060200190929190505050610878565b604051808215151515815260200191505060405180910390f35b3480156101e357600080fd5b506101ec610898565b6040518082815260200191505060405180910390f35b34801561020e57600080fd5b5061027d60048036038101908080359060200190929190803590602001908201803590602001908080601f01602080910402602001604051908101604052809392919081815260200183838082843782019150505050505091929192908035906020019092919050505061089e565b005b34801561028b57600080fd5b506102c0600480360381019080803573ffffffffffffffffffffffffffffffffffffffff16906020019092919050505061092c565b604051808215151515815260200191505060405180910390f35b3480156102e657600080fd5b506103056004803603810190808035906020019092919050505061094c565b6040518085815260200184815260200180602001838152602001828103825284818151815260200191508051906020019080838360005b8381101561035757808201518184015260208101905061033c565b50505050905090810190601f1680156103845780820380516001836020036101000a031916815260200191505b509550505050505060405180910390f35b3480156103a157600080fd5b506103aa610a14565b6040518082815260200191505060405180910390f35b3480156103cc57600080fd5b50610401600480360381019080803573ffffffffffffffffffffffffffffffffffffffff169060200190929190505050610a1a565b604051808215151515815260200191505060405180910390f35b34801561042757600080fd5b5061045c600480360381019080803573ffffffffffffffffffffffffffffffffffffffff169060200190929190505050610a3a565b604051808215151515815260200191505060405180910390f35b34801561048257600080fd5b506104a160048036038101908080359060200190929190505050610a5a565b005b3480156104af57600080fd5b506104ce60048036038101908080359060200190929190505050610b7e565b6040518084815260200180602001838152602001828103825284818151815260200191508051906020019080838360005b8381101561051a5780820151818401526020810190506104ff565b50505050905090810190601f1680156105475780820380516001836020036101000a031916815260200191505b5094505050505060405180910390f35b34801561056357600080fd5b5061058260048036038101908080359060200190929190505050610c40565b005b34801561059057600080fd5b506105af60048036038101908080359060200190929190505050610d64565b005b3480156105bd57600080fd5b50610622600480360381019080803590602001908201803590602001908080601f016020809104026020016040519081016040528093929190818152602001838380828437820191505050505050919291929080359060200190929190505050610e88565b005b34801561063057600080fd5b5061064f60048036038101908080359060200190929190505050610f04565b005b34801561065d57600080fd5b50610666611028565b6040518082815260200191505060405180910390f35b34801561068857600080fd5b506106a76004803603810190808035906020019092919050505061102e565b005b3480156106b557600080fd5b506106ea600480360381019080803573ffffffffffffffffffffffffffffffffffffffff169060200190929190505050611152565b604051808215151515815260200191505060405180910390f35b34801561071057600080fd5b5061072f60048036038101908080359060200190929190505050611172565b005b34801561073d57600080fd5b5061075c60048036038101908080359060200190929190505050611296565b6040518080602001848152602001838152602001828103825285818151815260200191508051906020019080838360005b838110156107a857808201518184015260208101905061078d565b50505050905090810190601f1680156107d55780820380516001836020036101000a031916815260200191505b5094505050505060405180910390f35b3480156107f157600080fd5b50610856600480360381019080803590602001908201803590602001908080601f016020809104026020016040519081016040528093929190818152602001838380828437820191505050505050919291929080359060200190929190505050611358565b005b60046020528060005260406000206000915054906101000a900460ff1681565b60076020528060005260406000206000915054906101000a900460ff1681565b600b5481565b600a60008154809291906001019190505550608060405190810160405280600a5481526020018481526020018381526020018281525060026000600a548152602001908152602001600020600082015181600001556020820151816001015560408201518160020190805190602001906109199291906113d5565b5060608201518160030155905050505050565b60066020528060005260406000206000915054906101000a900460ff1681565b6002602052806000526040600020600091509050806000015490806001015490806002018054600181600116156101000203166002900480601f016020809104026020016040519081016040528092919081815260200182805460018160011615610100020316600290048015610a045780601f106109d957610100808354040283529160200191610a04565b820191906000526020600020905b8154815290600101906020018083116109e757829003601f168201915b5050505050908060030154905084565b60095481565b60036020528060005260406000206000915054906101000a900460ff1681565b60056020528060005260406000206000915054906101000a900460ff1681565b600560003373ffffffffffffffffffffffffffffffffffffffff1673ffffffffffffffffffffffffffffffffffffffff16815260200190815260200160002060009054906101000a900460ff16151515610ab357600080fd5b600081118015610ac55750600a548111155b1515610ad057600080fd5b6001600560003373ffffffffffffffffffffffffffffffffffffffff1673ffffffffffffffffffffffffffffffffffffffff16815260200190815260200160002060006101000a81548160ff0219169083151502179055506002600082815260200190815260200160002060030160008154809291906001019190505550807ffff3c900d938d21d0990d786e819f29b8d05c1ef587b462b939609625b684b1660405160405180910390a250565b6000602052806000526040600020600091509050806000015490806001018054600181600116156101000203166002900480601f016020809104026020016040519081016040528092919081815260200182805460018160011615610100020316600290048015610c305780601f10610c0557610100808354040283529160200191610c30565b820191906000526020600020905b815481529060010190602001808311610c1357829003601f168201915b5050505050908060020154905083565b600360003373ffffffffffffffffffffffffffffffffffffffff1673ffffffffffffffffffffffffffffffffffffffff16815260200190815260200160002060009054906101000a900460ff16151515610c9957600080fd5b600081118015610cab5750600a548111155b1515610cb657600080fd5b6001600360003373ffffffffffffffffffffffffffffffffffffffff1673ffffffffffffffffffffffffffffffffffffffff16815260200190815260200160002060006101000a81548160ff0219169083151502179055506002600082815260200190815260200160002060030160008154809291906001019190505550807ffff3c900d938d21d0990d786e819f29b8d05c1ef587b462b939609625b684b1660405160405180910390a250565b600760003373ffffffffffffffffffffffffffffffffffffffff1673ffffffffffffffffffffffffffffffffffffffff16815260200190815260200160002060009054906101000a900460ff16151515610dbd57600080fd5b600081118015610dcf5750600a548111155b1515610dda57600080fd5b6001600760003373ffffffffffffffffffffffffffffffffffffffff1673ffffffffffffffffffffffffffffffffffffffff16815260200190815260200160002060006101000a81548160ff0219169083151502179055506002600082815260200190815260200160002060030160008154809291906001019190505550807ffff3c900d938d21d0990d786e819f29b8d05c1ef587b462b939609625b684b1660405160405180910390a250565b6009600081548092919060010191905055506060604051908101604052806009548152602001838152602001828152506000806009548152602001908152602001600020600082015181600001556020820151816001019080519060200190610ef29291906113d5565b50604082015181600201559050505050565b600460003373ffffffffffffffffffffffffffffffffffffffff1673ffffffffffffffffffffffffffffffffffffffff16815260200190815260200160002060009054906101000a900460ff16151515610f5d57600080fd5b600081118015610f6f5750600a548111155b1515610f7a57600080fd5b6001600460003373ffffffffffffffffffffffffffffffffffffffff1673ffffffffffffffffffffffffffffffffffffffff16815260200190815260200160002060006101000a81548160ff0219169083151502179055506002600082815260200190815260200160002060030160008154809291906001019190505550807ffff3c900d938d21d0990d786e819f29b8d05c1ef587b462b939609625b684b1660405160405180910390a250565b600a5481565b600860003373ffffffffffffffffffffffffffffffffffffffff1673ffffffffffffffffffffffffffffffffffffffff16815260200190815260200160002060009054906101000a900460ff1615151561108757600080fd5b6000811180156110995750600a548111155b15156110a457600080fd5b6001600860003373ffffffffffffffffffffffffffffffffffffffff1673ffffffffffffffffffffffffffffffffffffffff16815260200190815260200160002060006101000a81548160ff0219169083151502179055506002600082815260200190815260200160002060030160008154809291906001019190505550807ffff3c900d938d21d0990d786e819f29b8d05c1ef587b462b939609625b684b1660405160405180910390a250565b60086020528060005260406000206000915054906101000a900460ff1681565b600660003373ffffffffffffffffffffffffffffffffffffffff1673ffffffffffffffffffffffffffffffffffffffff16815260200190815260200160002060009054906101000a900460ff161515156111cb57600080fd5b6000811180156111dd5750600a548111155b15156111e857600080fd5b6001600660003373ffffffffffffffffffffffffffffffffffffffff1673ffffffffffffffffffffffffffffffffffffffff16815260200190815260200160002060006101000a81548160ff0219169083151502179055506002600082815260200190815260200160002060030160008154809291906001019190505550807ffff3c900d938d21d0990d786e819f29b8d05c1ef587b462b939609625b684b1660405160405180910390a250565b6001602052806000526040600020600091509050806000018054600181600116156101000203166002900480601f0160208091040260200160405190810160405280929190818152602001828054600181600116156101000203166002900480156113425780601f1061131757610100808354040283529160200191611342565b820191906000526020600020905b81548152906001019060200180831161132557829003601f168201915b5050505050908060010154908060020154905083565b600b60008154809291906001019190505550606060405190810160405280838152602001828152602001600b5481525060016000600b54815260200190815260200160002060008201518160000190805190602001906113b99291906113d5565b5060208201518160010155604082015181600201559050505050565b828054600181600116156101000203166002900490600052602060002090601f016020900481019282601f1061141657805160ff1916838001178555611444565b82800160010185558215611444579182015b82811115611443578251825591602001919060010190611428565b5b5090506114519190611455565b5090565b61147791905b8082111561147357600081600090555060010161145b565b5090565b905600a165627a7a723058207c8a215fe121e6e9c3ba77447c6dfbff3f1755991a3b192f6c24265f230155c10029",
  "source": "pragma solidity 0.4.25;\n\ncontract Election {\n    \n    struct Elections\n    {\n        uint electionId;\n        string electionName;\n        uint candidateCount;\n    }\n\n    struct Candidate\n    {\n        uint candId;\n        uint electionId;\n        string candName;\n        uint voteCount;\n    }\n\n    struct VotedFace\n    {\n        \n        string name;\n        uint electag;\n        uint count;\n    }\n\n    mapping(uint => Elections) public election;\n\n    mapping(uint => VotedFace) public votedface;\n\n    mapping(uint => Candidate) public candidate;\n\n    mapping(address => bool) public voters1;\n\n    mapping(address => bool) public voters2;\n\n     mapping(address => bool) public voters3;\n\n    mapping(address => bool) public voters4;\n\n    mapping(address => bool) public voters5;\n\n    mapping(address => bool) public voters6;\n\n\n    constructor () public {\n        addElections(\"General Secretary\",3);\n        // addElections(\"Election Two\",3);\n        addCandidate(1,\"Arjun\",0);\n        // addCandidate(2,\"Adesh\",0);\n         addCandidate(1,\"Sulabh\",0);\n        addCandidate(1,\"Shubham\",0);\n        // addCandidate(2,\"Abhishek\",0);\n        // addCandidate(2,\"Bhavya\",0);\n    }\n\n    uint public ElectionCount;\n    uint public CandidateCount;\n    uint public FaceCount;\n\n     event votedEvent (\n        uint indexed _candidateId\n    );\n\n\n    function addFace (string memory name,uint tag) public\n    {\n        FaceCount++;\n        votedface[FaceCount] = VotedFace(name,tag,FaceCount);\n    }\n\n\n    function addElections (string memory name,uint count) public\n    {\n        ElectionCount++;\n        election[ElectionCount] = Elections(ElectionCount,name,count);\n\n    }\n\n    function addCandidate (uint id,string memory name,uint vote) public\n    {\n        CandidateCount++;\n        candidate[CandidateCount]= Candidate(CandidateCount,id,name,vote);\n\n    }\n\n    function vote1 (uint _candidateId) public {\n        // require that they haven't voted before\n        \n        require(!voters1[msg.sender]);\n\n        // require a valid candidate\n        require(_candidateId > 0 && _candidateId <= CandidateCount);\n\n        // record that voter has voted\n        voters1[msg.sender] = true;\n\n        // update candidate vote Count\n        candidate[_candidateId].voteCount ++;\n\n        // trigger voted event\n        emit votedEvent(_candidateId);\n    }\n\n     function vote2 (uint _candidateId) public {\n        // require that they haven't voted before\n        \n        require(!voters2[msg.sender]);\n\n        // require a valid candidate\n        require(_candidateId > 0 && _candidateId <= CandidateCount);\n\n        // record that voter has voted\n        voters2[msg.sender] = true;\n\n        // update candidate vote Count\n        candidate[_candidateId].voteCount ++;\n\n        // trigger voted event\n        emit votedEvent(_candidateId);\n    }\n\n     function vote3 (uint _candidateId) public {\n        // require that they haven't voted before\n        \n        require(!voters3[msg.sender]);\n\n        // require a valid candidate\n        require(_candidateId > 0 && _candidateId <= CandidateCount);\n\n        // record that voter has voted\n        voters3[msg.sender] = true;\n\n        // update candidate vote Count\n        candidate[_candidateId].voteCount ++;\n\n        // trigger voted event\n        emit votedEvent(_candidateId);\n    }\n\n     function vote4 (uint _candidateId) public {\n        // require that they haven't voted before\n        \n        require(!voters4[msg.sender]);\n\n        // require a valid candidate\n        require(_candidateId > 0 && _candidateId <= CandidateCount);\n\n        // record that voter has voted\n        voters4[msg.sender] = true;\n\n        // update candidate vote Count\n        candidate[_candidateId].voteCount ++;\n\n        // trigger voted event\n        emit votedEvent(_candidateId);\n    }\n\n     function vote5 (uint _candidateId) public {\n        // require that they haven't voted before\n        \n        require(!voters5[msg.sender]);\n\n        // require a valid candidate\n        require(_candidateId > 0 && _candidateId <= CandidateCount);\n\n        // record that voter has voted\n        voters5[msg.sender] = true;\n\n        // update candidate vote Count\n        candidate[_candidateId].voteCount ++;\n\n        // trigger voted event\n        emit votedEvent(_candidateId);\n    }\n\n    function vote6 (uint _candidateId) public {\n        // require that they haven't voted before\n        \n        require(!voters6[msg.sender]);\n\n        // require a valid candidate\n        require(_candidateId > 0 && _candidateId <= CandidateCount);\n\n        // record that voter has voted\n        voters6[msg.sender] = true;\n\n        // update candidate vote Count\n        candidate[_candidateId].voteCount ++;\n\n        // trigger voted event\n        emit votedEvent(_candidateId);\n    }\n\n}",
  "sourcePath": "C:\\Users\\Arjun344\\Desktop\\Elections\\contracts\\Election.sol",
  "compiler": {
    "name": "solc",
    "version": "0.4.25+commit.59dbf8f1.Emscripten.clang"
  },
  "schemaVersion": "3.2.0",
  "updatedAt": "2020-05-31T18:37:46.379Z",
  "networkType": "ethereum",
  "devdoc": {
    "methods": {}
  },
  "userdoc": {
    "methods": {}
  }
}